:1002C70012023E8F0CAD0C7F0112018CE50C60F021
:0902D7007F887E1312029F80E76C
:0402E000EF4E601469
:1002E40000750A02750BC7D50BFDD50AFAEF1F700E
:0202F400EB1EFF
:0302F60080E8227B
:10023E00E4F50820B1137F14FE1202E030B1FD7F09
:10024E00147E001202E075080120B0147F147E00A7
:10025E001202E030B0FD7F147E001202E07508023B
:10026E0020B2147F147E001202E030B2FD7F147EA5
:10027E00001202E075080320B3147F147E001202F0
:10028E00E030B3FD7F147E001202E0750804AF0863
:01029E00223D
:10018C00EF14B4080050549001A175F003A4C5837A
:10019C0025F0C583730201B90201BD0201C1020140
:1001AC00C50201C90201D10201D90201E1C2A48038
:1001BC000EC2A48012C2A48016C2A4801AD2A4C2F9
:1001CC00A3C2A28016D2A4C2A3D2A2800ED2A4D261
:1001DC00A3C2A28006D2A4D2A3D2A2EDB40A00502C
:1001EC004D9001F4F8282873020212020216020242
:1001FC001A02021E02022202022602022A02022E07
:10020C0002023202023675803F227580062275800A
:10021C005B2275804F227580662275806D227580F9
:10022C007D227580072275807F2275806F22E4F510
:02023C0080221E
:10029F008E088F09E4F50FF510C3E5109509E50FEA
:1002AF0095085013B2A57F017E001202E00510E5FC
:0802BF001070E6050F80E22239
:10000300E4F5117590FFC2972093137F14FE12023B
:10001300E03093FD7F147E001202E07511012092FF
:10002300147F147E001202E03092FD7F147E0012D2
:1000330002E07511022091147F147E001202E03059
:1000430091FD7F147E001202E07511032090147F4E
:10005300147E001202E03090FD7F147E001202E055
:100063007511047590FFC2962093147F147E0012BD
:1000730002E03093FD7F147E001202E0751105202B
:1000830092147F147E001202E03092FD7F147E00F2
:100093001202E07511062091147F147E001202E013
:1000A3003091FD7F147E001202E075110720901439
:1000B3007F147E001202E03090FD7F147E00120256
:1000C300E07511087590FFC2952093147F147E008C
:1000D3001202E03093FD7F147E001202E0751109D5
:1000E3002092147F147E001202E03092FD7F147E72
:1000F300001202E075110A2091147F147E0012028F
:10010300E03091FD7F147E001202E075110B209008
:10011300147F147E001202E03090FD7F147E0012E3
:1001230002E075110C7590FFC2942093147F147E26
:10013300001202E03093FD7F147E001202E075117D
:100143000D2092147F147E001202E03092FD7F1482
:100153007E001202E075110E2091147F147E0012AE
:1001630002E03091FD7F147E001202E075110F2032
:1001730090147F147E001202E03090FD7F147E0005
:080183001202E0751110AF112A
:01018B002251
:030000000202F900
:0C02F900787FE4F6D8FD7581110202C781
:00000001FF
