:0402DD00420041009A
:0300030002009A5E
:10009A00C0E0C0F0C083C082C0D075D000C000C02C
:1000AA0001C002C003C004C005C006C0077BFF7AB6
:1000BA000279DD7D017F011201D17FE87E03120200
:1000CA002F7BFF7A0279DF7D017F011201D1D007F0
:1000DA00D006D005D004D003D002D001D000D0D0B1
:0900EA00D082D083D0F0D0E032C6
:10025E001202731202BE7BFF7A0279DF7D017F01EB
:05026E001201D180F136
:04022F00EF4E60141A
:1002330000750F027510C7D510FDD50FFAEF1F70AB
:02024300EB1EB0
:0302450080E8222C
:100287002020202020202020202020202020202067
:010297000066
:06029800C2A58F80D2A771
:08029E007F027EEFDEFEDFFCB3
:0102A6002235
:0A02C900C2A6120298C2A702029E0C
:1001F400CFCDCFCECCCE1200457C007D0A12004577
:04020400ED2430FFB6
:0A020800D2A6120298C2A702029EBD
:10024800AE07BE0104ED148006BE0209ED243F444A
:0602580080FF1202C92222
:100273007F381202C97F0C1202C97F061202C97F9E
:04028300010202C9A9
:0A02D300AC03120248AF0402020857
:0601D1008B128A13891451
:1001D700120248E4FDAB12AA13A9148D827583009D
:0C01E700120006FF60061202080D80E9FD
:0101F30022E9
:0C019E007F0AEA24FFFDE434FFFC7E0031
:0801AA008E248F258C268D2781
:1001B2007F017E00E4FBEBC39527E5266480F8749B
:0E01C2008098500AAC24AD251200330B80E863
:0101D000220C
:040212008A178B18A4
:10021600120248AA19EAD39400400D12019EAC17A7
:08022600AD181201F41A80ED7D
:01022E0022AD
:1000F300120248C3EA64809480400B7F2B120208EB
:100103008A0D8B0E800E7F2D120208C3E49BF50E21
:10011300E49AF50DAA0CEAD39400400D12019EACAB
:090123000DAD0E1201F41A80ED7D
:01012C0022B0
:04012D008A1C8B1D80
:10013100120248AA1EEAD3940040297F101201A09E
:10014100AC1CAD1DCFCDCFCECCCE120045EF540FA0
:10015100FEC3940AEE5004243080022437FF1202B9
:04016100081A80D127
:010165002277
:040166008A218B223D
:10016A00120248AA23EAD394004028EA24FFFDE4B5
:10017A0034FFFC7F027E001201AAAC21AD22CFCD52
:10018A00CFCECCCE120045EF54012430FF12020824
:03019A001A80D2F6
:01019D00223F
:0B02B3007BFF7A0279877D010201D1F8
:0B02BE00D288C289D2A8D2AFD2B822E9
:030000000202A752
:0C02A700787FE4F6D8FD75812702025E26
:10000600BB010CE58229F582E5833AF583E02250AF
:1000160006E92582F8E622BBFE06E92582F8E222F9
:0D002600E58229F582E5833AF583E4932213
:10003300EF8DF0A4A8F0CF8CF0A428CE8DF0A42EE1
:02004300FE229B
:10004500BC000BBE0029EF8DF084FFADF022E4CC9F
:10005500F875F008EF2FFFEE33FEEC33FCEE9DEC68
:10006500984005FCEE9DFE0FD5F0E9E4CEFD22EDAE
:10007500F8F5F0EE8420D21CFEADF075F008EF2FF8
:10008500FFED33FD4007985006D5F0F222C398FDE9
:050095000FD5F0EA2286
:00000001FF
