:0C051000445331333032205465737400C2
:100345001204ED12053A7BFF7A057910E4FD7F0171
:100355001204647D117C007F801202A07F8112024D
:10036500F78F29EFFB7A00750C057D027F021204D9
:10037500A5750C027B2D7A007D0A7F021204A580EB
:01038500FE79
:06050100C2A58F80D2A705
:080507007F027EEFDEFEDFFC47
:01050F0022C9
:0A051C00C2A6120501C2A7020507DE
:10048700CFCDCFCECCCE12012C7C007D0A12012C11
:04049700ED2430FF21
:0A049B00D2A6120501C2A702050750
:1004C200AE07BE0104ED148006BE0209ED243F44CE
:0604D20080FF12051C2250
:1004ED007F3812051C7F0C12051C7F0612051C7F20
:0404FD000102051CD7
:0A052600AC031204C2AF0402049BF0
:060464008B088A09890AD9
:10046A001204C2E4FDAB08AA09A90A8D82758300A9
:0C047A001200EDFF600612049B0D80E9EB
:010486002253
:0C0431007F0AEA24FFFDE434FFFC7E009B
:08043D008E0D8F0E8C0F8D1047
:100445007F017E00E4FBEBC39510E50F6480F87433
:0E0455008098500AAC0DAD0E12011A0B80E813
:010463002276
:0404A5008A0A8B0B29
:1004A9001204C2AA0CEAD39400400D120431AC0A1A
:0804B900AD0B1204871A80ED5F
:0104C1002218
:100386001204C2C3EA64809480400B7F2B12049B44
:100396008A168B17800E7F2D12049BC3E49BF517DC
:1003A600E49AF516AA15EAD39400400D120431AC6E
:0903B60016AD171204871A80ED40
:0103BF00221B
:0403C0008A218B22E1
:1003C4001204C2AA23EAD3940040297F10120433F2
:1003D400AC21AD22CFCDCFCECCCE12012CEF540F19
:1003E400FEC3940AEE5004243080022437FF120422
:0403F4009B1A80D1FF
:0103F80022E2
:0403F9008A268B279E
:1003FD001204C2AA28EAD394004028EA24FFFDE49F
:10040D0034FFFC7F027E0012043DAC26AD27CFCD1C
:10041D00CFCECCCE12012CEF54012430FF12049B11
:03042D001A80D260
:0104300022A9
:090530000718130B100C3B3706F1
:05053A00C2B5C2B622AB
:06029A0025F0FDEC3EFC26
:0602A0008C088D09AB077C
:1002A600D2B5E4FD7E007401A805088005C333CEEF
:1002B60033CED8F9FFEBF582EF558224FF92B4D204
:1002C600B6C2B60DBD08DDE4FD7E007401A80508C2
:1002D6008005C333CE33CED8F9FFE5085EFEE509C7
:1002E6005F4E24FF92B4D2B6C2B60DBD08DBC2B5CE
:0102F60022E5
:0202F700AD0751
:1002F900E4F9430501D2B5FB7E007401A803088027
:1003090005C333CE33CED8F9FFEDF582EF558224FC
:10031900FF92B4C2B6D2B60BBB08DDE4FBD2B6C2BB
:10032900B630B40DA8037401088002C333D8FC4267
:0B033900010BBB08E8C2B5C2B4AF0165
:010344002296
:10000300E4FDFC7F8E1202A0E51875F00A8475F0FA
:1000130010A4FFAEF0E51875F00A84EF7F8C12028E
:100023009AE51975F00A8475F010A4FFAEF0E5198E
:1000330075F00A847C00EF7F8812029AE51A75F046
:100043000A8475F010A4FFAEF0E51A75F00A847CFB
:1000530000EF25F0FDEC3EFC7F861202A0E51B7548
:10006300F00A8475F010A4FFAEF0E51B75F00A8466
:100073007C00EF25F0FDEC3EFC7F841202A0E51C22
:1000830075F00A8475F010A4FFAEF0E51C75F00A54
:10009300847C00EF25F0FDEC3EFC7F821202A0E59C
:1000A3001D75F00A8475F010A4FFAEF0E51D75F020
:1000B3000A847C00EF25F0FDEC3EFC7F801202A059
:1000C300E51E75F00A8475F010A4FFAEF0E51E7509
:1000D300F00A847C00EF25F0FDEC3EFC7F8A1202DF
:0A00E300A07D807C007F8E0202A049
:100181007F8C1202F7EFC4540F75F00AA4FEEF54EE
:100191000F2EF5187F881202F7EFC4540F75F00A7D
:1001A100A4FEEF540F2EF5197F861202F7EFC45407
:1001B1000F75F00AA4FEEF540F2EF51A7F84120278
:1001C100F7EFC4540F75F00AA4FEEF540F2EF51B80
:1001D1007F821202F7EFC4540F75F00AA4FEEF54A8
:1001E1000F2EF51C7F801202F7EFC4540F75F00A31
:1001F100A4FEEF540F2EF51D7F8A1202F7EFC454AF
:0C0201000F75F00AA4FEEF540F2EF51E3E
:01020D0022CE
:1004D800EF1FAC0670011E4C600A7D027CEFDCFE4B
:0404E800DDFC80ECCB
:0104EC0022ED
:0300000002020EEB
:0C020E00787FE4F6D8FD758129020255C6
:1000ED00BB010CE58229F582E5833AF583E02250C8
:1000FD0006E92582F8E622BBFE06E92582F8E22212
:0D010D00E58229F582E5833AF583E493222B
:10011A00EF8DF0A4A8F0CF8CF0A428CE8DF0A42EF9
:02012A00FE22B3
:10012C00BC000BBE0029EF8DF084FFADF022E4CCB7
:10013C00F875F008EF2FFFEE33FEEC33FCEE9DEC80
:10014C00984005FCEE9DFE0FD5F0E9E4CEFD22EDC6
:10015C00F8F5F0EE8420D21CFEADF075F008EF2F10
:10016C00FFED33FD4007985006D5F0F222C398FD01
:05017C000FD5F0EA229E
:10021A00020345E493A3F8E493A34003F68001F2B2
:10022A0008DFF48029E493A3F85407240CC8C333E5
:10023A00C4540F4420C8834004F456800146F6DFB4
:10024A00E4800B0102040810204080900530E47E0F
:10025A00019360BCA3FF543F30E509541FFEE493A9
:10026A00A360010ECF54C025E060A840B8E493A370
:10027A00FAE493A3F8E493A3C8C582C8CAC583CA9B
:10028A00F0A3C8C582C8CAC583CADFE9DEE780BE53
:0105390000C1
:00000001FF
