:1009650054656D703A00544C3A0054483A004C00B6
:040975004800200016
:0609EE00010800011100E8
:1003C2001209AE1209797BFF7A0979657D017F01F5
:1003D2001208527BFF7A09796B7D017F0212085263
:1003E2007BFF7A09796F7D097F021208527FEE7EC8
:1003F200021209057F021207A98F117F0A7E0012DD
:1004020009057F011207A98F087F0A7E00120905DC
:10041200D3E511648094FD5015C3E5086480F8E5C6
:10042200116480984008E50864809449502C751145
:100432001C750814E508FD3395E0FC7F0112082EB7
:100442007F0A7E00120905E511FD3395E0FC7F026B
:1004520012082E7F0A7E0012090512066A8F1212F6
:1004620009AE1207D98F0C8E0B8D0A8C09E4FFFEA0
:10047200FDFCAB0CAA0BA90AA809120109501E7BAC
:100482002D7D067F011209D1AF0CAE0BAD0AAC096E
:100492001201828F108E0F8D0E8C0D80097B2B7DA9
:1004A200067F011209D1AF0CAE0BAD0AAC091201E5
:1004B200D1AB07AA067517027D077F011208B17B2F
:1004C2002E7D097F011209D1E4FFFE7DC87C42AB7B
:1004D2000CAA0BA90AA8091200031201D1E47B6439
:1004E200FAF9F81203227517027D0A7F011208B188
:1004F200E508FB3395E0FA7517037D047F021206C7
:10050200CBE511FB3395E0FA7517037D0C7F0212E0
:1005120006CBE5126050B401110508C3E5116480F1
:10052200F8E50864809840021508E512B4020E1539
:1005320008C3E5086480944950037508C9E512B4FC
:10054200030E0511D3E511648094FD400375117DFE
:10055200E512B404111511D3E5086480F8E51164BD
:10056200809850021508E508FD3395E0FC7F0112E2
:10057200082E7F0A7E00120905E511FD3395E0FC85
:100582007F0212082E7F0A7E00120905AC08EC12C7
:10059200019DAB0CAA0BA90AA80912010950087BFC
:1005A200FF7A097973801BAC11EC12019DAB0CAA86
:1005B2000BA90AA809120109601240107BFF7A09EF
:1005C20079757D0D7F0112085202045C7BFF7A0966
:0C05D20079777D0D7F0112085202045C55
:04090500EF4E60143D
:10090900007514027515C7D515FDD514FAEF1F70BA
:02091900EB1ED3
:03091B0080E8224F
:06099F00C2A58F80D2A763
:0809A5007F027EEFDEFEDFFCA5
:0109AD002227
:0A09C700C2A612099FC2A70209A5EB
:10087500CFCDCFCECCCE1202917C007D0A12029153
:04088500ED2430FF2F
:0A088900D2A612099FC2A70209A51A
:10094F00AE07BE0104ED148006BE0209ED243F443C
:06095F0080FF1209C7220F
:100979007F381209C77F0C1209C77F061209C77F82
:04098900010209C797
:0A09D100AC0312094FAF04020889BD
:060852008B138A148915C6
:1008580012094FE4FDAB13AA14A9158D8275830004
:0C086800120252FF60061208890D80E9A0
:010874002261
:0C0776007F0AEA24FFFDE434FFFC7E0053
:080782008E1A8F1B8C1C8D1DCB
:10078A007F017E00E4FBEBC3951DE51C6480F874D1
:0E079A008098500AAC1AAD1B12027F0B80E84B
:0107A800222E
:0408B1008A158B1603
:1008B50012094FAA17EAD39400400D120776AC151A
:0808C500AD161208751A80ED52
:0108CD002208
:1006CB0012094FC3EA64809480400B7F2B12088978
:1006DB008A188B19800E7F2D120889C3E49BF5199C
:1006EB00E49AF518AA17EAD39400400D120776ACDA
:0906FB0018AD191208751A80ED02
:0107040022D2
:040705008A208B219A
:1007090012094FAA22EAD3940040297F10120778D0
:10071900AC20AD21CFCDCFCECCCE120291EF540F6C
:10072900FEC3940AEE5004243080022437FF1208D5
:04073900891A80D1C8
:01073D002299
:04073E008A258B2657
:1007420012094FAA27EAD394004028EA24FFFDE4C5
:1007520034FFFC7F027E00120782AC25AD26CFCD8E
:10076200CFCECCCE120291EF54012430FF12088971
:030772001A80D218
:010775002261
:0D09AE001208EB7FCC12091E7F4402091EC7
:1007D9001208EB7FCC12091E7FBE12091E1208CE29
:1007E9008F131208CEEFFEE513FFE4AD07AC061236
:0C07F9000198E4FBFA7980783D020003CF
:1008EB00D2B7C2B77FF7DFFED2B77F20DFFEA2B74A
:0908FB00E433FE7FF7DFFEAF06D7
:0109040022D0
:10098D00C2B77E04DEFEEF24FF92B77E18DEFED2E4
:01099D00B7A2
:01099E002236
:10093700C2B77F02DFFED2B77F02DFFEA2B7E43382
:07094700FE7F18DFFEAF0682
:01094E002286
:02091E00AD0723
:10092000E4FCA8047401088002C333D8FC5DFF1204
:06093000098D0CBC08EC6F
:01093600229E
:1008CE00E4FDFC120937EF600DA8047401088002E4
:0C08DE00C333D8FC42050CBC08E9AF0590
:0108EA0022EB
:0909E500D2A0D2A1C2A0C2A1223D
:0709F500C2A0D2A1D2A02292
:02080500AD073D
:10080700E4FB7E007480A803088006CEA2E713CE1F
:1008170013D8F8FFEDF582EF558224FF92A0D2A1FD
:06082700C2A10BBB08DCBE
:01082D0022A8
:10089300E4FFD2A0FED2A130A00DA8067480088088
:0D08A30002C313D8FC4207C2A10EBE08E834
:0108B0002225
:0A09DB00EF24FF92A0D2A1C2A122D6
:0B09BB00D2A0D2A1A2A0E433FFC2A191
:0109C600220E
:10066A00E4F51320B1137F14FE12090530B1FD7FA2
:10067A00147E0012090575130120B0147F147E0040
:10068A0012090530B0FD7F147E00120905751302A8
:10069A0020B2147F147E0012090530B2FD7F147E49
:1006AA000012090575130320B3147F147E00120982
:1006BA000530B3FD7F147E00120905751304AF13CC
:0106CA00220D
:0109FC0022D8
:10082E008F138C148D151209E57FA012080512097D
:10083E00BBAF131208051209BBAF1512080512093A
:04084E00BB0209F5EB
:0207A9008F13AC
:1007AB001209E57FA01208051209BBAF1312080549
:1007BB001209BB1209E57FA11208051209BB120829
:0D07CB00938F147F011209DB1209F5AF14A2
:0107D80022FE
:10000300EC4D6011E8497017ED33EC3304600DE4F7
:10001300FCFFFEFD22E933E8330470F802023D12CF
:10002300020858046009E4CC2481500628500902D0
:100033000247284003020244C0E0EB4A7044B980FF
:1000430006D0E0FB020233EF4E701CBD8008EBFFCD
:10005300EAFEE9FD80EBE98DF0A4FEE5F00200EC99
:10006300E9CDF9EAFEEBFFEF89F0A4FCE5F0CE89D8
:10007300F0A42EFFE435F0CD89F0A42DFEE435F095
:100083008067EF4E7005BD80D780C3EF8BF0A4ACC3
:10009300F0EE8BF0A42CFCE435F0F8EF8AF0A42CFE
:1000A300E5F038FCE433CB8DF0A42CFCE5F03BF811
:1000B300EE8AF0A42CFCE5F038F8E433CF89F0A401
:1000C3002CFCE5F038CF3400CE89F0A42FFFE5F007
:1000D3003EFEE433C98DF0A42EFEE5F039CD8AF05F
:1000E300A42FFFE5F03EFEE43DFD33D0E0FB5007D7
:1000F3000BBB000F020247EC2CFCEF33FFEE33FE89
:06010300ED33FD02021FB6
:1001090074F8CC6480CCC86480C8F58204604FC39D
:10011900EB9FF5F0EA9E42F0E99D42F0E89C45F03C
:10012900603C501DE5825FFFE582D313CB5BCBF4C6
:100139002B5582FB50280ABA002409B900200880EF
:100149001DE5825BFBE582D313CF5FCFF4C3132F89
:100159005582FF50090EBE00050DBD00010CC3EB11
:100169009FF5F0EA9E42F0E99D42F0E89C45F06077
:0901790007CC4820E701B3EC2299
:10018200ED33EC33600A047003BD8004ECB2E7FC8B
:01019200224A
:1001930075F020800E75F010800575F0087D007EE7
:1001A300007F003392D530D5031203B4EC334010F3
:1001B300EF33FFEE33FEED33FDEC33FCD5F0ED22F0
:0E01C300E5F0247EA2D513CC92E7CDCEFF222C
:1001D100EDD2E7CD33EC3392D524814006E4FFFE26
:1001E100FDFC22FCE4CFCECDCC24E0501174FF8085
:1001F100EDC3CC13CCCD13CDCE13CECF13CF047022
:07020100F030D5DE0203B46A
:10020800E9D2E7C933E833F892D5EDD2E7CD33EC3C
:0702180033FC5002B2D522B5
:10021F00EC30E7100FBF000C0EBE00080DBD000440
:10022F000BEB6014A2D5EB13FCED92E7FD2274FFEC
:10023F00FCFDFEFF22E480F8A2D574FF13FC7D8045
:03024F00E480EF59
:030000000205DE18
:0C05DE00787FE4F6D8FD75812702062521
:10025200BB010CE58229F582E5833AF583E0225061
:1002620006E92582F8E622BBFE06E92582F8E222AB
:0D027200E58229F582E5833AF583E49322C5
:10027F00EF8DF0A4A8F0CF8CF0A428CE8DF0A42E93
:02028F00FE224D
:10029100BC000BBE0029EF8DF084FFADF022E4CC51
:1002A100F875F008EF2FFFEE33FEEC33FCEE9DEC1A
:1002B100984005FCEE9DFE0FD5F0E9E4CEFD22ED60
:1002C100F8F5F0EE8420D21CFEADF075F008EF2FAA
:1002D100FFED33FD4007985006D5F0F222C398FD9B
:0502E1000FD5F0EA2238
:1002E60075F008758200EF2FFFEE33FECD33CDCCCF
:1002F60033CCC58233C5829BED9AEC99E582984052
:100306000CF582EE9BFEED9AFDEC99FC0FD5F0D62E
:10031600E4CEFBE4CDFAE4CCF9A88222B800C1B958
:100326000059BA002DEC8BF084CFCECDFCE5F0CB96
:10033600F97818EF2FFFEE33FEED33FDEC33FCEBCF
:1003460033FB10D703994004EB99FB0FD8E5E4F98A
:10035600FA227818EF2FFFEE33FEED33FDEC33FC77
:10036600C933C910D7059BE99A4007EC9BFCE99A6B
:10037600F90FD8E0E4C9FAE4CCFB2275F010EF2FB0
:10038600FFEE33FEED33FDCC33CCC833C810D707B0
:100396009BEC9AE899400AED9BFDEC9AFCE899F8EB
:0E03A6000FD5F0DAE4CDFBE4CCFAE4C8F9227E
:0E03B400C3E49FFFE49EFEE49DFDE49CFC225A
:1005EA000203C2E493A3F8E493A34003F68001F262
:1005FA0008DFF48029E493A3F85407240CC8C33312
:10060A00C4540F4420C8834004F456800146F6DFE0
:10061A00E4800B01020408102040809009EEE47E79
:10062A00019360BCA3FF543F30E509541FFEE493D5
:10063A00A360010ECF54C025E060A840B8E493A39C
:10064A00FAE493A3F8E493A3C8C582C8CAC583CAC7
:10065A00F0A3C8C582C8CAC583CADFE9DEE780BE7F
:0109F4000002
:00000001FF
