:100236003C42A98585A9423C3C42A18585A1423C18
:080246003C42A58989A5423C58
:10018C00E4F509F50A120271E4F508E50825099071
:10019C00023693FD7C00AF081201F90508E508C38F
:1001AC00940840E7050AE50AD3940F40DBE4F50A0E
:1001BC0074082509F509D3941040CDE4F50980C8DD
:04021D00EF4E60142C
:1002210000750B02750CC7D50CFDD50BFAEF1F70CD
:02023100EB1EC2
:0302330080E8223E
:10000300E4F50D7590FFC2972093137F14FE12023F
:100013001D3093FD7F147E0012021D750D01209289
:10002300147F147E0012021D3092FD7F147E001295
:10003300021D750D022091147F147E0012021D30E3
:1000430091FD7F147E0012021D750D032090147F15
:10005300147E0012021D3090FD7F147E0012021DDB
:10006300750D047590FFC2962093147F147E0012C1
:10007300021D3093FD7F147E0012021D750D0520B5
:1000830092147F147E0012021D3092FD7F147E00B5
:1000930012021D750D062091147F147E0012021D9D
:1000A3003091FD7F147E0012021D750D0720901400
:1000B3007F147E0012021D3090FD7F147E00120219
:1000C3001D750D087590FFC2952093147F147E0053
:1000D30012021D3093FD7F147E0012021D750D095F
:1000E3002092147F147E0012021D3092FD7F147E35
:1000F3000012021D750D0A2091147F147E00120256
:100103001D3091FD7F147E0012021D750D0B209092
:10011300147F147E0012021D3090FD7F147E0012A6
:10012300021D750D0C7590FFC2942093147F147EED
:100133000012021D3093FD7F147E0012021D750D07
:100143000D2092147F147E0012021D3092FD7F1445
:100153007E0012021D750D0E2091147F147E001275
:10016300021D3091FD7F147E0012021D750D0F20BC
:1001730090147F147E0012021D3090FD7F147E00C8
:0801830012021D750D10AF0DF5
:01018B002251
:10024E005389F0438901758CFC758A67C28DD28CF7
:07025E00D2A9D2AFC2B92200
:080271007580FFC2B5C2B62280
:0201CC00AD077D
:1001CE00E4FB7E007480A803088006CEA2E713CE5F
:1001DE0013D8F8FFEDF582EF558224FF92B4D2B614
:0A01EE00C2B60BBB08DCD2B5C2B5E7
:0101F80022E4
:1001F900AE05AC07AF061201CCAF04A8077480089E
:100209008002C313D8FCF4F5807F017E0012021D21
:040219007580FF22CB
:0300000002026594
:0C026500787FE4F6D8FD75810D02018C55
:00000001FF
