:0B03080041444A204E5443205247005D
:10009700C2911202C87BFF7A0379087D017F0112A2
:1000A700023B7F9C1201058E228F237F147E001254
:1000B7000299750C04AB23AA227D017F0212027CF0
:1000C7007FDC1201058E228F237F147E0012029996
:1000D700750C04AB23AA227D067F0212027C7FAC3B
:1000E7001201058E228F237F147E00120299750C50
:0E00F70004AB23AA227D0B7F0212027C80A4A0
:04029900EF4E6014B0
:10029D00007508027509C7D509FDD508FAEF1F705D
:0202AD00EB1E46
:0302AF0080E822C2
:1002DC002020202020202020202020202020202012
:0102EC000011
:0602ED00C2A58F80D2A71C
:0802F3007F027EEFDEFEDFFC5E
:0102FB0022E0
:0A031E00C2A61202EDC2A70202F30C
:10025E00CFCDCFCECCCE1200427C007D0A12004212
:04026E00ED2430FF4C
:0A027200D2A61202EDC2A70202F3A9
:1002B200AE07BE0104ED148006BE0209ED243F44E0
:0602C20080FF12031E2262
:1002C8007F3812031E7F0C12031E7F0612031E7F47
:0402D8000102031EFE
:0A032800AC031202B2AF040202722D
:06023B008B088A09890A04
:100241001202B2E4FDAB08AA09A90A8D82758300E6
:0C025100120003FF60061202720D80E92B
:01025D00227E
:0C0208007F0AEA24FFFDE434FFFC7E00C6
:080214008E0D8F0E8C0F8D1072
:10021C007F017E00E4FBEBC39510E50F6480F8745E
:0E022C008098500AAC0DAD0E1200300B80E829
:01023A0022A1
:04027C008A0A8B0B54
:100280001202B2AA0CEAD39400400D120208AC0A82
:08029000AD0B12025E1A80EDB5
:010298002243
:10015D001202B2C3EA64809480400B7F2B120272AC
:10016D008A168B17800E7F2D120272C3E49BF51732
:10017D00E49AF516AA15EAD39400400D120208ACC4
:09018D0016AD1712025E1A80ED96
:010196002246
:040197008A1A8B1B1A
:10019B001202B2AA1CEAD3940040297F1012020A61
:1001AB00AC1AAD1BCFCDCFCECCCE120042EF540F3D
:1001BB00FEC3940AEE5004243080022437FF12024F
:0401CB00721A80D153
:0101CF00220D
:0401D0008A1F8B20D7
:1001D4001202B2AA21EAD394004028EA24FFFDE4E3
:1001E40034FFFC7F027E00120214AC1FAD20CFCD81
:1001F400CFCECCCE120042EF54012430FF12027253
:030204001A80D28B
:0102070022D4
:0B0313007BFF7A0279DC7D0102023BD7
:02010500AD0744
:10010700E4F508F509C2B6C2B5FB7E007480A80302
:10011700088006CEA2E713CE13D8F8FFEDF582EFDD
:10012700558224FF92B4D2B6C2B60BBB08DCE4FBFF
:10013700D2B6C2B630B7137E80E4A803088005CED6
:10014700C313CE13D8F9F5098E080BBB10E2D2B54D
:05015700E508FF7E0039
:01015C002280
:030000000202FCFD
:0C02FC00787FE4F6D8FD7581230200979E
:10000300BB010CE58229F582E5833AF583E02250B2
:1000130006E92582F8E622BBFE06E92582F8E222FC
:0D002300E58229F582E5833AF583E4932216
:10003000EF8DF0A4A8F0CF8CF0A428CE8DF0A42EE4
:02004000FE229E
:10004200BC000BBE0029EF8DF084FFADF022E4CCA2
:10005200F875F008EF2FFFEE33FEEC33FCEE9DEC6B
:10006200984005FCEE9DFE0FD5F0E9E4CEFD22EDB1
:10007200F8F5F0EE8420D21CFEADF075F008EF2FFB
:10008200FFED33FD4007985006D5F0F222C398FDEC
:050092000FD5F0EA2289
:00000001FF
