:03000B000201529D
:10015200C0E0C0F0C0D0758AA4758CFF050AE50A1C
:1001620075F0648485F00AE50AC395085004D2A1AB
:0B0172008002C2A1D0D0D0F0D0E0325B
:10012100120196E4F50B850B087F147E0012017D08
:10013100050BE50BC3946440ED750B64E50BD3949B
:100141000040E0850B087F147E0012017D150B80B5
:01015100EBC2
:04017D00EF4E6014CD
:1001810000750C02750DC7D50DFDD50CFAEF1F706A
:02019100EB1E63
:0301930080E822DF
:1000C000E4F50E20B1137F14FE12017D30B1FD7FE7
:1000D000147E0012017D750E0120B0147F147E0085
:1000E00012017D30B0FD7F147E0012017D750E027D
:1000F00020B2147F147E0012017D30B2FD7F147E89
:100100000012017D750E0320B3147F147E001201CE
:100110007D30B3FD7F147E0012017D750E04AF0E9D
:0101200022BC
:0100030022DA
:10000E00EF14B40800505490002375F003A4C58378
:10001E0025F0C5837302003B02003F02004302003D
:10002E004702004B02005302005B020063C2A48031
:10003E000EC2A48012C2A48016C2A4801AD2A4C278
:10004E00A3C2A28016D2A4C2A3D2A2800ED2A4D2E0
:10005E00A3C2A28006D2A4D2A3D2A2EDB40A0050AB
:10006E004D900076F8282873020094020098020042
:10007E009C0200A00200A40200A80200AC0200B084
:10008E000200B40200B875803F227580062275808A
:10009E005B2275804F227580662275806D22758079
:1000AE007D227580072275807F2275806F22E4F590
:0200BE0080229E
:100196005389F0438901758AA4758CFFC28DD28C70
:0701A600D2A9D2AFC2B922B9
:030000000201AD4D
:0C01AD00787FE4F6D8FD75810E02012178
:00000001FF
