:03000B000201638C
:10016300C0E0C0F0C0D0758AA4758CFF050AE50A0B
:1001730075F0648485F00AE50AC395085004D291AA
:0B0183008002C291D0D0D0F0D0E0325A
:100121001201A7E4F508FD7F0112000E1200C08F35
:1001310009E509B4010C050B530B03AD0B7F01124B
:10014100000EE50B7002F508E50BB40103750832EA
:10015100E50BB4020375084BE50BB403CF750864D6
:0201610080CA52
:04018E00EF4E6014BC
:1001920000750D02750EC7D50EFDD50DFAEF1F7055
:0201A200EB1E52
:0301A40080E822CE
:1000C000E4F50C20B1137F14FE12018E30B1FD7FD8
:1000D000147E0012018E750C0120B0147F147E0076
:1000E00012018E30B0FD7F147E0012018E750C025D
:1000F00020B2147F147E0012018E30B2FD7F147E78
:100100000012018E750C0320B3147F147E001201BF
:100110008E30B3FD7F147E0012018E750C04AF0C7F
:0101200022BC
:0100030022DA
:10000E00EF14B40800505490002375F003A4C58378
:10001E0025F0C5837302003B02003F02004302003D
:10002E004702004B02005302005B020063C2A48031
:10003E000EC2A48012C2A48016C2A4801AD2A4C278
:10004E00A3C2A28016D2A4C2A3D2A2800ED2A4D2E0
:10005E00A3C2A28006D2A4D2A3D2A2EDB40A0050AB
:10006E004D900076F8282873020094020098020042
:10007E009C0200A00200A40200A80200AC0200B084
:10008E000200B40200B875803F227580062275808A
:10009E005B2275804F227580662275806D22758079
:1000AE007D227580072275807F2275806F22E4F590
:0200BE0080229E
:1001A7005389F0438901758AA4758CFFC28DD28C5F
:0701B700D2A9D2AFC2B922A8
:030000000201BE3C
:0C01BE00787FE4F6D8FD75810E02012167
:00000001FF
