:10049E008F498C4A8D4B12064C7FA012044E1206C9
:1004AE0017AF4912044E120617AF4B12044E120626
:0404BE00170200031E
:02041E008F4904
:1004200012064C7FA012044E120617AF4912044E5A
:1004300012061712064C7FA112044E120617120460
:0D044000E58F4A7F0112062E120003AF4A1D
:01044D00228C
:04055B00EF4E6014EB
:10055F0000754902754AC7D54AFDD549FAEF1F7094
:02056F00EB1E81
:0305710080E822FD
:09064C00D2A0D2A1C2A0C2A122D9
:07000300C2A0D2A1D2A0228D
:02044E00AD07F8
:10045000E4FB7E007480A803088006CEA2E713CEDA
:1004600013D8F8FFEDF582EF558224FF92A0D2A1B8
:06047000C2A10BBB08DC79
:010476002263
:1004E500E4FFD2A0FED2A130A00DA806748008803A
:0D04F50002C313D8FC4207C2A10EBE08E8E6
:0105020022D6
:0A062E00EF24FF92A0D2A1C2A12286
:0B061700D2A0D2A1A2A0E433FFC2A138
:0106220022B5
:1005F70020202020202020202020202020202020F4
:0106070000F2
:06060800C2A58F80D2A7FD
:08060E007F027EEFDEFEDFFC3F
:0106160022C1
:0A063800C2A6120608C2A702060EB1
:10050300CFCDCFCECCCE1201347C007D0A12013484
:04051300ED2430FFA4
:0A051700D2A6120608C2A702060EC3
:1005A400AE07BE0104ED148006BE0209ED243F44EB
:0605B40080FF1206382250
:1005D0007F381206387F0C1206387F061206387FE5
:0405E00001020638D6
:0A064200AC031205A4AF0402051773
:0604C2008B438A448945CA
:1004C8001205A4E4FDAB43AA44A9458D82758300B7
:0C04D8001200F5FF60061205170D80E908
:0104E40022F5
:0C03EB007F0AEA24FFFDE434FFFC7E00E2
:0803F7008E3F8F408C418D42C6
:1003FF007F017E00E4FBEBC39542E5416480F87416
:0E040F008098500AAC3FAD401201220B80E8ED
:01041D0022BC
:040521008A328B335C
:100525001205A4AA34EAD39400400D1203EBAC32B1
:08053500AD331205031A80ED3D
:01053D00229B
:100307001205A4C3EA64809480400B7F2B12051763
:100317008A2E8B2F800E7F2D120517C3E49BF52F96
:10032700E49AF52EAA2DEAD39400400D1203EBAC04
:090337002EAD2F1205031A80ED12
:01034000229A
:040341008A378B3834
:100345001205A4AA39EAD3940040297F101203EDBF
:10035500AC37AD38CFCDCFCECCCE120134EF540F64
:10036500FEC3940AEE5004243080022437FF1205A0
:04037500171A80D102
:010379002261
:0403B3008A3C8B3DB8
:1003B7001205A4AA3EEAD394004028EA24FFFDE4EC
:1003C70034FFFC7F027E001203F7AC3CAD3DCFCD7E
:1003D700CFCECCCE120134EF54012430FF120517D3
:0303E7001A80D2A7
:0103EA0022F0
:0B0623007BFF7A0579F77D010204C21D
:10000E0012058D1206558F28E528B4010CE52770D0
:10001E00047F0180027F008F27E528B40207E4F5F4
:10002E0025F524F526E52864037033E525FD7C00CF
:10003E00E4FF12049E7F057E0012055BE524FD7C25
:10004E00007F0112049E7F057E0012055BE526FDF2
:10005E007C007F0212049E7F057E0012055BE52860
:10006E00B40415E4FF12041E8F257F0112041E8FA7
:10007E00247F0212041E8F26E52575F00A84FD7C6E
:10008E00007F011205E4E52575F00A84E5F0FD7C9C
:10009E00007F021205E47D0B7C007F031205E4E570
:1000AE002475F00A84FD7C007F041205E4E52475B6
:1000BE00F00A84E5F0FD7C007F051205E47D0B7CE3
:1000CE00007F061205E4E52675F00A84FD7C007FAC
:1000DE00071205E4E52675F00A84E5F0FD7C007F45
:0700EE00081205E4020011F5
:10047700E52760220526E526C394644019E4F5269E
:100487000524E524943C400EE4F5240525E5259450
:070497003C4003E4F52522BF
:03000B0002018966
:10018900C0E0C0F0C083C082C0D075D000C000C03C
:0D01990001C002C003C004C005C006C007BD
:1001A600758A18758CFC051FE51F7002051EC39421
:1001B60014E51E94004009751E00751F0012037A8F
:1001C6000521E52170020520C39402E52094004034
:1001D600097520007521001205740523E5237002B8
:1001E6000522C3940AE5229400400975220075236E
:0401F6000012047778
:1001FA00D007D006D005D004D003D002D001D00059
:0B020A00D0D0D082D083D0F0D0E03202
:10058D005389F0438901758CFC758A67C28DD28CB5
:07059D00D2A9D2AFC2B922BE
:10053E000909000A0A0A0A0A0A0A0A0C123F065B8D
:0C054E004F666D7D077F6F0040010801C3
:1005E400EFC39401400CEFD39408500674092FF81C
:0305F400A6052237
:1002A100E4F580EF14B4080050549002B975F003DE
:1002B100A4C58325F0C583730202D10202D50202CF
:1002C100D90202DD0202E10202E90202F10202F9AF
:1002D100D2A4800ED2A48012D2A48016D2A4801AF5
:1002E100C2A4D2A3D2A28016C2A4D2A3C2A2800E5B
:1002F100C2A4C2A3D2A28006C2A4C2A3C2A2741283
:060301002DF8E6F5802254
:1005740074092508F8E6FDAF081202A10508E5088C
:08058400C3940940037508014E
:01058C00224C
:05065500E4AF48F54888
:01065A00227D
:1005BA00E4FF20B1010F20B0027F0220B2027F03C4
:0505CA0020B3027F04D4
:0105CF002209
:10037A008546471205BA8F46E547B40107E5467038
:10038A0003754801E547B40207E54670037548025C
:10039A00E547B40307E5467003754803E547B40427
:0803AA0007E5467003754804E5
:0103B2002228
:03000000020215E4
:0C021500787FE4F6D8FD75814B02025C96
:1000F500BB010CE58229F582E5833AF583E02250C0
:1001050006E92582F8E622BBFE06E92582F8E22209
:0D011500E58229F582E5833AF583E4932223
:10012200EF8DF0A4A8F0CF8CF0A428CE8DF0A42EF1
:02013200FE22AB
:10013400BC000BBE0029EF8DF084FFADF022E4CCAF
:10014400F875F008EF2FFFEE33FEEC33FCEE9DEC78
:10015400984005FCEE9DFE0FD5F0E9E4CEFD22EDBE
:10016400F8F5F0EE8420D21CFEADF075F008EF2F08
:10017400FFED33FD4007985006D5F0F222C398FDF9
:050184000FD5F0EA2296
:1002210002000EE493A3F8E493A34003F68001F2E5
:1002310008DFF48029E493A3F85407240CC8C333DE
:10024100C4540F4420C8834004F456800146F6DFAD
:10025100E4800B010204081020408090053EE47EFA
:10026100019360BCA3FF543F30E509541FFEE493A2
:10027100A360010ECF54C025E060A840B8E493A369
:10028100FAE493A3F8E493A3C8C582C8CAC583CA94
:10029100F0A3C8C582C8CAC583CADFE9DEE780BE4C
:01055A0000A0
:00000001FF
