:0300F500010900FE
:1000030043878075985053890F438920758BF47506
:0B0013008DF4C2ABD28ED2AFD2AC2273
:0800ED008F993099FDC29922A0
:030023000200B226
:1000B200C0E0C0D075D000C00730980FC2988599B3
:1000C20009E509F4F5A0AF091200EDD007D0D0D0B0
:0200D200E0321A
:05001E0012000380FE4A
:0400D400EF4E601477
:1000D80000750A02750BC7D50BFDD50AFAEF1F701C
:0200E800EB1E0D
:0300EA0080E82289
:03000000020026D5
:0C002600787FE4F6D8FD75810B02006DB8
:1000320002001EE493A3F8E493A34003F68001F2C6
:1000420008DFF48029E493A3F85407240CC8C333CF
:10005200C4540F4420C8834004F456800146F6DF9E
:10006200E4800B01020408102040809000F5E47E39
:10007200019360BCA3FF543F30E509541FFEE49393
:10008200A360010ECF54C025E060A840B8E493A35A
:10009200FAE493A3F8E493A3C8C582C8CAC583CA85
:1000A200F0A3C8C582C8CAC583CADFE9DEE780BE3D
:0100F8000007
:00000001FF
