:1003C2001206C112068C7FEE7E0212062C1206C1A4
:1003D20012056B8F258E248D238C22E4FFFEFDFCFB
:1003E200AB25AA24A923A822120109501E7B2D7D28
:1003F200017F011206E4AF25AE24AD23AC22120127
:10040200828F258E248D238C2280097B2B7D017F78
:10041200011206E4AF25AE24AD23AC221201D1AB0A
:1004220007AA06750C027D027F011205D87B2E7D7C
:10043200047F011206E4E4FFFE7DC87C42AB25AADC
:1004420024A923A8221200031201D1E47B64FAF941
:10045200F8120322750C027D057F011205D87F0078
:100462007E407D1C7C46AB25AA24A923A82212002B
:10047200031201D1E47B107A27F9F8120322750CDA
:0B048200047D057F021205D80203CFA5
:04062C00EF4E601419
:10063000007508027509C7D509FDD508FAEF1F70C6
:02064000EB1EAF
:0306420080E8222B
:0606B200C2A58F80D2A753
:0806B8007F027EEFDEFEDFFC95
:0106C0002217
:0A06DA00C2A61206B2C2A70206B8BB
:1005BA00CFCDCFCECCCE1202917C007D0A12029111
:0405CA00ED2430FFED
:0A05CE00D2A61206B2C2A70206B8B8
:10067600AE07BE0104ED148006BE0209ED243F4418
:0606860080FF1206DA22DB
:10068C007F381206DA7F0C1206DA7F061206DA7F42
:04069C00010206DA77
:0A06E400AC03120676AF040205CE47
:060597008B268A2789284B
:10059D00120676E4FDAB26AA27A9288D8275830065
:0C05AD00120252FF60061205CE0D80E91C
:0105B900221F
:0C0538007F0AEA24FFFDE434FFFC7E0093
:080544008E0D8F0E8C0F8D103F
:10054C007F017E00E4FBEBC39510E50F6480F8742B
:0E055C008098500AAC0DAD0E12027F0B80E8A5
:01056A00226E
:0405D8008A0A8B0BF5
:1005DC00120676AA0CEAD39400400D120538AC0A28
:0805EC00AD0B1205BA1A80EDF7
:0105F40022E4
:10048D00120676C3EA64809480400B7F2B1205CE52
:10049D008A168B17800E7F2D1205CEC3E49BF517A0
:1004AD00E49AF516AA15EAD39400400D120538AC5E
:0904BD0016AD171205BA1A80ED04
:0104C6002213
:0404C7008A1A8B1BE7
:1004CB00120676AA1CEAD3940040297F1012053A33
:1004DB00AC1AAD1BCFCDCFCECCCE120291EF540FB9
:1004EB00FEC3940AEE5004243080022437FF120519
:0404FB00CE1A80D1C4
:0104FF0022DA
:040500008A1F8B20A3
:10050400120676AA21EAD394004028EA24FFFDE4E7
:1005140034FFFC7F027E00120544AC1FAD20CFCD1A
:10052400CFCECCCE120291EF54012430FF1205CE6F
:030534001A80D258
:0105370022A1
:0D06C1001206127FCC1206457F440206454A
:10056B001206127FCC1206457FBE1206451205F508
:10057B008F081205F5EFFEE508FFE4AD07AC061298
:0C058B000198E4FBFA7980783D0200033F
:10061200D2B7C2B77FF7DFFED2B77F20DFFEA2B725
:09062200E433FE7FF7DFFEAF06B2
:01062B0022AC
:1006A000C2B77E04DEFEEF24FF92B77E18DEFED2D4
:0106B000B792
:0106B1002226
:10065E00C2B77F02DFFED2B77F02DFFEA2B7E4335E
:07066E00FE7F18DFFEAF065E
:010675002262
:02064500AD07FF
:10064700E4FCA8047401088002C333D8FC5DFF12E0
:0606570006A00CBC08EC3B
:01065D00227A
:1005F500E4FDFC12065EEF600DA80474010880029C
:0C060500C333D8FC42050CBC08E9AF056B
:0106110022C6
:10000300EC4D6011E8497017ED33EC3304600DE4F7
:10001300FCFFFEFD22E933E8330470F802023D12CF
:10002300020858046009E4CC2481500628500902D0
:100033000247284003020244C0E0EB4A7044B980FF
:1000430006D0E0FB020233EF4E701CBD8008EBFFCD
:10005300EAFEE9FD80EBE98DF0A4FEE5F00200EC99
:10006300E9CDF9EAFEEBFFEF89F0A4FCE5F0CE89D8
:10007300F0A42EFFE435F0CD89F0A42DFEE435F095
:100083008067EF4E7005BD80D780C3EF8BF0A4ACC3
:10009300F0EE8BF0A42CFCE435F0F8EF8AF0A42CFE
:1000A300E5F038FCE433CB8DF0A42CFCE5F03BF811
:1000B300EE8AF0A42CFCE5F038F8E433CF89F0A401
:1000C3002CFCE5F038CF3400CE89F0A42FFFE5F007
:1000D3003EFEE433C98DF0A42EFEE5F039CD8AF05F
:1000E300A42FFFE5F03EFEE43DFD33D0E0FB5007D7
:1000F3000BBB000F020247EC2CFCEF33FFEE33FE89
:06010300ED33FD02021FB6
:1001090074F8CC6480CCC86480C8F58204604FC39D
:10011900EB9FF5F0EA9E42F0E99D42F0E89C45F03C
:10012900603C501DE5825FFFE582D313CB5BCBF4C6
:100139002B5582FB50280ABA002409B900200880EF
:100149001DE5825BFBE582D313CF5FCFF4C3132F89
:100159005582FF50090EBE00050DBD00010CC3EB11
:100169009FF5F0EA9E42F0E99D42F0E89C45F06077
:0901790007CC4820E701B3EC2299
:10018200ED33EC33600A047003BD8004ECB2E7FC8B
:01019200224A
:1001930075F020800E75F010800575F0087D007EE7
:1001A300007F003392D530D5031203B4EC334010F3
:1001B300EF33FFEE33FEED33FDEC33FCD5F0ED22F0
:0E01C300E5F0247EA2D513CC92E7CDCEFF222C
:1001D100EDD2E7CD33EC3392D524814006E4FFFE26
:1001E100FDFC22FCE4CFCECDCC24E0501174FF8085
:1001F100EDC3CC13CCCD13CDCE13CECF13CF047022
:07020100F030D5DE0203B46A
:10020800E9D2E7C933E833F892D5EDD2E7CD33EC3C
:0702180033FC5002B2D522B5
:10021F00EC30E7100FBF000C0EBE00080DBD000440
:10022F000BEB6014A2D5EB13FCED92E7FD2274FFEC
:10023F00FCFDFEFF22E480F8A2D574FF13FC7D8045
:03024F00E480EF59
:030000000206CE27
:0C06CE00787FE4F6D8FD7581280203C295
:10025200BB010CE58229F582E5833AF583E0225061
:1002620006E92582F8E622BBFE06E92582F8E222AB
:0D027200E58229F582E5833AF583E49322C5
:10027F00EF8DF0A4A8F0CF8CF0A428CE8DF0A42E93
:02028F00FE224D
:10029100BC000BBE0029EF8DF084FFADF022E4CC51
:1002A100F875F008EF2FFFEE33FEEC33FCEE9DEC1A
:1002B100984005FCEE9DFE0FD5F0E9E4CEFD22ED60
:1002C100F8F5F0EE8420D21CFEADF075F008EF2FAA
:1002D100FFED33FD4007985006D5F0F222C398FD9B
:0502E1000FD5F0EA2238
:1002E60075F008758200EF2FFFEE33FECD33CDCCCF
:1002F60033CCC58233C5829BED9AEC99E582984052
:100306000CF582EE9BFEED9AFDEC99FC0FD5F0D62E
:10031600E4CEFBE4CDFAE4CCF9A88222B800C1B958
:100326000059BA002DEC8BF084CFCECDFCE5F0CB96
:10033600F97818EF2FFFEE33FEED33FDEC33FCEBCF
:1003460033FB10D703994004EB99FB0FD8E5E4F98A
:10035600FA227818EF2FFFEE33FEED33FDEC33FC77
:10036600C933C910D7059BE99A4007EC9BFCE99A6B
:10037600F90FD8E0E4C9FAE4CCFB2275F010EF2FB0
:10038600FFEE33FEED33FDCC33CCC833C810D707B0
:100396009BEC9AE899400AED9BFDEC9AFCE899F8EB
:0E03A6000FD5F0DAE4CDFBE4CCFAE4C8F9227E
:0E03B400C3E49FFFE49EFEE49DFDE49CFC225A
:00000001FF
