:10000300EF14B40800505490001875F003A4C5838E
:1000130025F0C58373020030020034020038020069
:100023003C020040020048020050020058C2A48073
:100033000EC2A48012C2A48016C2A4801AD2A4C283
:10004300A3C2A28016D2A4C2A3D2A2800ED2A4D2EB
:10005300A3C2A28006D2A4D2A3D2A2EDB40A0050B6
:100063004D90006BF828287302008902008D02006E
:100073009102009502009902009D0200A10200A5D1
:100083000200A90200AD75803F22758006227580AB
:100093005B2275804F227580662275806D22758084
:1000A3007D227580072275807F2275806F22E4F59B
:0200B3008022A9
:0D00CE001F1200031200DBE4FD1F120003EF
:0400DB00E4F58022A6
:1000B5007D027F081200CF1200D77D061200CE7D8B
:0900C500021200D71200CE80E700
:030000000200DF1C
:0C00DF00787FE4F6D8FD7581070200B5BB
:00000001FF
