:10032800415432344330322054455354004E756D95
:100338006265722073617665640053617665642036
:070348006265666F723A0066
:03000B000201A24D
:1001A200C0E0C0F0C083C082C0D075D000C000C023
:1001B20001C002C003C004C005C006C007758C3C64
:1001C200758AB00527E527B4640A7527007F027E89
:1001D20000120481D007D006D005D004D003D0028B
:0F01E200D001D000D0D0D082D083D0F0D0E03286
:10000E001204081204357BFF7A0379287D017F01E3
:10001E001203731201418F26E526B401110525E561
:10002E0025FB7A00750F057D017F021203D2E526AE
:10003E00B402111525E525FB7A00750F057D017FAC
:10004E00021203D2E5266403702AFCAD25FF1203CB
:10005E004F7F057E001203EFE4FDFC7F0112034F7C
:10006E007F057E001203EF7BFF7A0379357D017FDA
:10007E0002120373E526B4049AE4FF1202CF8F2511
:10008E007BFF7A0379427D017F02120373E525FB24
:0F009E007A00750F047D0D7F021203D20200213C
:0403EF00EF4E601459
:1003F30000750C02750DC7D50DFDD50CFAEF1F70F6
:02040300EB1EEE
:0304050080E8226A
:10014100E4F50B20B1137F14FE1203EF30B1FD7FF4
:10015100147E001203EF750B0120B0147F147E0092
:100161001203EF30B0FD7F147E001203EF750B0216
:1001710020B2147F147E001203EF30B2FD7F147E93
:10018100001203EF750B0320B3147F147E001203DA
:10019100EF30B3FD7F147E001203EF750B04AF0B3C
:0101A100223B
:1004490020202020202020202020202020202020A3
:0104590000A2
:06045A00C2A58F80D2A7AD
:080460007F027EEFDEFEDFFCEF
:010468002271
:0A048C00C2A612045AC2A7020460BF
:10039600CFCDCFCECCCE1200EC7C007D0A1200EC85
:0403A600ED2430FF13
:0A03AA00D2A612045AC2A702046092
:10041F00AE07BE0104ED148006BE0209ED243F4471
:06042F0080FF12048C2284
:100435007F3812048C7F0C12048C7F0612048C7F8B
:040445000102048C20
:0A049600AC0312041FAF040203AA16
:060373008B0B8A0C890DC2
:1003790012041FE4FDAB0BAA0CA90D8D8275830035
:0C0389001200ADFF60061203AA0D80E90F
:010395002245
:0C029C007F0AEA24FFFDE434FFFC7E0032
:0802A8008E108F118C128D13D2
:1002B0007F017E00E4FBEBC39513E5126480F874C4
:0E02C0008098500AAC10AD111200DA0B80E8E5
:0102CE00220D
:0403D2008A0D8B0EF7
:1003D60012041FAA0FEAD39400400D12029CAC0D22
:0803E600AD0E1203961A80ED22
:0103EE0022EC
:1001F10012041FC3EA64809480400B7F2B1203AA70
:100201008A198B1A800E7F2D1203AAC3E49BF51A5B
:10021100E49AF519AA18EAD39400400D12029CAC95
:0902210019AD1A1203961A80EDC2
:01022A0022B1
:04022B008A1D8B1E7F
:10022F0012041FAA1FEAD3940040297F1012029EC6
:10023F00AC1DAD1ECFCDCFCECCCE1200ECEF540FF8
:10024F00FEC3940AEE5004243080022437FF1203B9
:04025F00AA1A80D186
:010263002278
:040264008A228B233C
:1002680012041FAA24EAD394004028EA24FFFDE4DC
:1002780034FFFC7F027E001202A8AC22AD23CFCD52
:10028800CFCECCCE1200ECEF54012430FF1203AADB
:030298001A80D2F7
:01029B002240
:0B0481007BFF7A0479497D01020373C0
:10034F008F0B8C0C8D0D1204AA7FA01202FF1204CA
:10035F0069AF0B1202FF120469AF0D1202FF1204F4
:04036F00690200031C
:0202CF008F0B93
:1002D1001204AA7FA01202FF120469AF0B1202FFDF
:1002E1001204691204AA7FA11202FF120469120307
:0D02F100B48F0C7F011204A0120003AF0CAB
:0102FE0022DD
:0904AA00D2A0D2A1C2A0C2A1227D
:07000300C2A0D2A1D2A0228D
:0202FF00AD0749
:10030100E4FB7E007480A803088006CEA2E713CE2A
:1003110013D8F8FFEDF582EF558224FF92A0D2A108
:06032100C2A10BBB08DCC9
:0103270022B3
:1003B400E4FFD2A0FED2A130A00DA806748008806C
:0D03C40002C313D8FC4207C2A10EBE08E818
:0103D1002209
:0A04A000EF24FF92A0D2A1C2A12216
:0B046900D2A0D2A1A2A0E433FFC2A1E8
:010474002265
:100408005389F0438901758CFC758A67C28DD28C3B
:07041800D2A9D2AFC2B92244
:0300000002047582
:0C047500787FE4F6D8FD75812702000EA8
:1000AD00BB010CE58229F582E5833AF583E0225008
:1000BD0006E92582F8E622BBFE06E92582F8E22252
:0D00CD00E58229F582E5833AF583E493226C
:1000DA00EF8DF0A4A8F0CF8CF0A428CE8DF0A42E3A
:0200EA00FE22F4
:1000EC00BC000BBE0029EF8DF084FFADF022E4CCF8
:1000FC00F875F008EF2FFFEE33FEEC33FCEE9DECC1
:10010C00984005FCEE9DFE0FD5F0E9E4CEFD22ED06
:10011C00F8F5F0EE8420D21CFEADF075F008EF2F50
:10012C00FFED33FD4007985006D5F0F222C398FD41
:05013C000FD5F0EA22DE
:00000001FF
