:1006D60002080000010E01010C00020A03E8010DE8
:0106E600FE15
:03000B0002048A62
:10048A00C0E0C0D075D000C000C0070509E50970FA
:10049A00020508758CFC758A67C3E509950BE508A2
:1004AA00950A402E750800750900E50EB4010FAFD4
:1004BA000D7801EF08800123D8FDF50D8011E50EB6
:1004CA00700DAF0D7801EF08800103D8FDF50D8599
:0B04DA000DA0D007D000D0D0D0E03241
:1004E500850DA01206951202758F0CE50C6003F4BC
:1004F500F5A0E50CB40C10AC0AAD0BE41201197BA8
:10050500CD7ACC794C8012E50CB4101BAC0AAD0B3E
:10051500E4120119E4FBFA79A0783F12000E1201EA
:10052500528E0A8F0B80BFE50CB40905750E01804C
:0B053500B5E50CB40AB0E4F50E80AB95
:0606E800C2A58F80D2A71D
:0806EE007F027EEFDEFEDFFC5F
:0106F60022E1
:0A06F700C2A61206E8C2A70206EE32
:10064100CFCDCFCECCCE1202127C007D0A12021287
:04065100ED2430FF65
:0A065500D2A61206E8C2A70206EEC4
:1006AC00AE07BE0104ED148006BE0209ED243F44E2
:0606BC0080FF1206F72288
:1006C2007F381206F77F0C1206F77F061206F77FB5
:0406D200010206F724
:0A070100AC031206ACAF040206556B
:06061E008B298A2A892BBA
:100624001206ACE4FDAB29AA2AA92B8D827583009E
:0C0634001201D3FF60061206550D80E98C
:010640002297
:0C05EB007F0AEA24FFFDE434FFFC7E00E0
:0805F7008E258F268C278D282C
:1005FF007F017E00E4FBEBC39528E5276480F87448
:0E060F008098500AAC25AD261202000B80E840
:01061D0022BA
:04065F008A188B1951
:100663001206ACAA1AEAD39400400D1205EBAC189B
:08067300AD191206411A80EDD9
:01067B00225C
:100540001206ACC3EA64809480400B7F2B120655E0
:100550008A148B15800E7F2D120655C3E49BF5156A
:10056000E49AF514AA13EAD39400400D1205EBACFB
:0905700014AD151206411A80EDCC
:01057900225F
:04057A008A1D8B1E2D
:10057E001206ACAA1FEAD3940040297F101205ED93
:10058E00AC1DAD1ECFCDCFCECCCE120212EF540F7E
:10059E00FEC3940AEE5004243080022437FF120664
:0405AE00551A80D189
:0105B2002226
:0405B3008A228B23EA
:1005B7001206ACAA24EAD394004028EA24FFFDE4FB
:1005C70034FFFC7F027E001205F7AC22AD23CFCDAE
:1005D700CFCECCCE120212EF54012430FF120655B3
:0305E7001A80D2A5
:0105EA0022EE
:10027500E4F52C7590FFC2972093137F14FE1206A8
:100285007C3093FD7F147E0012067C752C01209234
:10029500147F147E0012067C3092FD7F147E0012BE
:1002A500067C752C022091147F147E0012067C308A
:1002B50091FD7F147E0012067C752C032090147F1F
:1002C500147E0012067C3090FD7F147E0012067CA1
:1002D500752C047590FFC2962093147F147E00122E
:1002E500067C3093FD7F147E0012067C752C05205C
:1002F50092147F147E0012067C3092FD7F147E00DE
:1003050012067C752C062091147F147E0012067C43
:100315003091FD7F147E0012067C752C0720901409
:100325007F147E0012067C3090FD7F147E0012063D
:100335007C752C087590FFC2952093147F147E0060
:1003450012067C3093FD7F147E0012067C752C0905
:100355002092147F147E0012067C3092FD7F147E5D
:100365000012067C752C0A2091147F147E0012065B
:100375007C3091FD7F147E0012067C752C0B20903D
:10038500147F147E0012067C3090FD7F147E0012CF
:10039500067C752C0C7590FFC2942093147F147EF7
:1003A5000012067C3093FD7F147E0012067C752CAE
:1003B5000D2092147F147E0012067C3092FD7F146E
:1003C5007E0012067C752C0E2091147F147E00127F
:1003D500067C3091FD7F147E0012067C752C0F2063
:1003E50090147F147E0012067C3090FD7F147E00F1
:0803F50012067C752C10AF2CE0
:0103FD0022DD
:100695005389F0438901758CFC758A67C28DD28CAC
:0706A500D2A9D2AFC2B922B5
:04067C00EF4E6014C9
:1006800000752D02752EC7D52EFDD52DFAEF1F70E2
:02069000EB1E5F
:0306920080E822DB
:10000E00EC4D6011E8497017ED33EC3304600DE4EC
:10001E00FCFFFEFD22E933E8330470F80201BE1244
:10002E00018958046009E4CC248150062850090245
:10003E0001C82840030201C5C0E0EB4A7044B980F4
:10004E0006D0E0FB0201B4EF4E701CBD8008EBFF42
:10005E00EAFEE9FD80EBE98DF0A4FEE5F00200F783
:10006E00E9CDF9EAFEEBFFEF89F0A4FCE5F0CE89CD
:10007E00F0A42EFFE435F0CD89F0A42DFEE435F08A
:10008E008067EF4E7005BD80D780C3EF8BF0A4ACB8
:10009E00F0EE8BF0A42CFCE435F0F8EF8AF0A42CF3
:1000AE00E5F038FCE433CB8DF0A42CFCE5F03BF806
:1000BE00EE8AF0A42CFCE5F038F8E433CF89F0A4F6
:1000CE002CFCE5F038CF3400CE89F0A42FFFE5F0FC
:1000DE003EFEE433C98DF0A42EFEE5F039CD8AF054
:1000EE00A42FFFE5F03EFEE43DFD33D0E0FB5007CC
:1000FE000BBB000F0201C8EC2CFCEF33FFEE33FEFE
:06010E00ED33FD0201A02B
:1001140075F020800E75F010800575F0087D007E66
:10012400007F003392D530D503120267EC334010C0
:10013400EF33FFEE33FEED33FDEC33FCD5F0ED226F
:0E014400E5F0247EA2D513CC92E7CDCEFF22AB
:10015200EDD2E7CD33EC3392D524814006E4FFFEA5
:10016200FDFC22FCE4CFCECDCC24E0501174FF8004
:10017200EDC3CC13CCCD13CDCE13CECF13CF0470A1
:07018200F030D5DE02026738
:10018900E9D2E7C933E833F892D5EDD2E7CD33ECBC
:0701990033FC5002B2D52235
:1001A000EC30E7100FBF000C0EBE00080DBD0004C0
:1001B0000BEB6014A2D5EB13FCED92E7FD2274FF6C
:1001C000FCFDFEFF22E480F8A2D574FF13FC7D80C5
:0301D000E480EFD9
:030000000203FEFA
:0C03FE00787FE4F6D8FD75812E020445DE
:1001D300BB010CE58229F582E5833AF583E02250E1
:1001E30006E92582F8E622BBFE06E92582F8E2222B
:0D01F300E58229F582E5833AF583E4932245
:10020000EF8DF0A4A8F0CF8CF0A428CE8DF0A42E12
:02021000FE22CC
:10021200BC000BBE0029EF8DF084FFADF022E4CCD0
:10022200F875F008EF2FFFEE33FEEC33FCEE9DEC99
:10023200984005FCEE9DFE0FD5F0E9E4CEFD22EDDF
:10024200F8F5F0EE8420D21CFEADF075F008EF2F29
:10025200FFED33FD4007985006D5F0F222C398FD1A
:050262000FD5F0EA22B7
:0E026700C3E49FFFE49EFEE49DFDE49CFC22A8
:10040A000204E5E493A3F8E493A34003F68001F21F
:10041A0008DFF48029E493A3F85407240CC8C333F3
:10042A00C4540F4420C8834004F456800146F6DFC2
:10043A00E4800B01020408102040809006D6E47E76
:10044A00019360BCA3FF543F30E509541FFEE493B7
:10045A00A360010ECF54C025E060A840B8E493A37E
:10046A00FAE493A3F8E493A3C8C582C8CAC583CAA9
:10047A00F0A3C8C582C8CAC583CADFE9DEE780BE61
:0106E7000012
:00000001FF
