:100322001203D6120003EFFB7A00750C027D017FE7
:100332000112038A120003EFFB7A00750C017D01A2
:070342007F0212038A80DC38
:0403A700EF4E6014A1
:1003AB0000750902750AC7D50AFDD509FAEF1F704A
:0203BB00EB1E37
:0303BD0080E822B3
:0603EA00C2A58F80D2A71E
:0803F0007F027EEFDEFEDFFC60
:0103F80022E2
:0A040500C2A61203EAC2A70203F028
:10036C00CFCDCFCECCCE1201EF7C007D0A1201EFA7
:04037C00ED2430FF3D
:0A038000D2A61203EAC2A70203F09E
:1003C000AE07BE0104ED148006BE0209ED243F44D1
:0603D00080FF120405226B
:1003D6007F381204057F0C1204057F061204057F80
:0403E6000102040507
:0A040F00AC031203C0AF0402038027
:060349008B228A238924A7
:10034F001203C0E4FDAB22AA23A9248D827583007A
:0C035F001201B0FF60061203800D80E95F
:01036B00226F
:0C02EF007F0AEA24FFFDE434FFFC7E00DF
:0802FB008E0D8F0E8C0F8D108B
:100303007F017E00E4FBEBC39510E50F6480F87476
:0E0313008098500AAC0DAD0E1201DD0B80E893
:0103210022B9
:04038A008A0A8B0B45
:10038E001203C0AA0CEAD39400400D1202EFAC0A7D
:08039E00AD0B12036C1A80ED97
:0103A6002234
:100244001203C0C3EA64809480400B7F2B120380A6
:100254008A168B17800E7F2D120380C3E49BF5173B
:10026400E49AF516AA15EAD39400400D1202EFACF5
:0902740016AD1712036C1A80ED9F
:01027D00225E
:04027E008A1A8B1B32
:100282001203C0AA1CEAD3940040297F101202F183
:10029200AC1AAD1BCFCDCFCECCCE1201EFEF540FA7
:1002A200FEC3940AEE5004243080022437FF120366
:0402B200801A80D15D
:0102B6002225
:0402B7008A1F8B20EF
:1002BB001203C0AA21EAD394004028EA24FFFDE4EC
:1002CB0034FFFC7F027E001202FBAC1FAD20CFCDB2
:1002DB00CFCECCCE1201EFEF54012430FF120380AE
:0302EB001A80D2A4
:0102EE0022ED
:10000300E4F5087590FFC2972093167F14FE120340
:10001300A73093FD7F147E001203A7750801AF0874
:10002300222092177F147E001203A73092FD7F14C3
:100033007E001203A7750802AF08222091177F14D0
:100043007E001203A73091FD7F147E001203A77573
:100053000803AF08222090177F147E001203A730F5
:1000630090FD7F147E001203A7750804AF0822C217
:10007300962093177F147E001203A73093FD7F14FD
:100083007E001203A7750805AF08222092177F147C
:100093007E001203A73092FD7F147E001203A77522
:1000A3000806AF08222091177F147E001203A730A1
:1000B30091FD7F147E001203A7750807AF08222065
:1000C30090177F147E001203A73090FD7F147E00EB
:1000D3001203A7750808AF0822C2952093177F144F
:1000E3007E001203A73093FD7F147E001203A775D1
:1000F3000809AF08222092177F147E001203A7304D
:1001030092FD7F147E001203A775080AAF08222010
:1001130091177F147E001203A73091FD7F147E0098
:100123001203A775080BAF08222090177F147E00D7
:100133001203A73090FD7F147E001203A775080CED
:10014300AF0822C2942093177F147E001203A730B6
:1001530093FD7F147E001203A775080DAF082220BC
:1001630092177F147E001203A73092FD7F147E0046
:100173001203A775080EAF08222091177F147E0083
:100183001203A73091FD7F147E001203A775080F99
:10019300AF08222090167F147E001203A73090FD33
:0C01A3007F147E001203A7750810AF083F
:0101AF00222D
:030000000203F9FF
:0C03F900787FE4F6D8FD75812402032211
:1001B000BB010CE58229F582E5833AF583E0225004
:1001C00006E92582F8E622BBFE06E92582F8E2224E
:0D01D000E58229F582E5833AF583E4932268
:1001DD00EF8DF0A4A8F0CF8CF0A428CE8DF0A42E36
:0201ED00FE22F0
:1001EF00BC000BBE0029EF8DF084FFADF022E4CCF4
:1001FF00F875F008EF2FFFEE33FEEC33FCEE9DECBD
:10020F00984005FCEE9DFE0FD5F0E9E4CEFD22ED02
:10021F00F8F5F0EE8420D21CFEADF075F008EF2F4C
:10022F00FFED33FD4007985006D5F0F222C398FD3D
:05023F000FD5F0EA22DA
:00000001FF
