:1001FC0048656C6C6F2C576F726C64210048656C91
:08020C006C6F2C4D43552100DD
:1001750012023E7BFF7A0179FC7D017F0112019E0F
:100185007F5012022A7BFF7A0279097D017F0212D4
:09019500019E7F5012022A80DA5B
:03022A00EF601072
:0E022D00007522027523C7D523FDD522FA1FC6
:03023B0080ED2231
:06025200C2A58F80D2A7B7
:080258007F027EEFDEFEDFFCF9
:01026000227B
:0A026D00C2A6120252C2A7020258F4
:1001C100CFCDCFCECCCE1200427C007D0A120042B0
:0401D100ED2430FFEA
:0A01D500D2A6120252C2A70202587D
:10021400AE07BE0104ED148006BE0209ED243F447E
:0602240080FF12026D22B2
:10023E007F3812026D7F0C12026D7F0612026D7FE7
:04024E000102026D3A
:0A027700AC03120214AF040201D51B
:06019E008B228A23892454
:1001A400120214E4FDAB22AA23A9248D82758300D4
:0C01B400120003FF60061201D50D80E967
:0101C000221C
:0C0142007F0AEA24FFFDE434FFFC7E008D
:08014E008E1E8F1F8C208D21F5
:100156007F017E00E4FBEBC39521E5206480F87403
:0E0166008098500AAC1EAD1F1200300B80E8CE
:010174002268
:0401DF008A118B12E4
:1001E300120214AA13EAD39400400D120142AC1177
:0801F300AD121201C11A80EDEA
:0101FB0022E1
:10009700120214C3EA64809480400B7F2B1201D5AF
:1000A7008A0D8B0E800E7F2D1201D5C3E49BF50EB2
:1000B700E49AF50DAA0CEAD39400400D120142AC64
:0900C7000DAD0E1201C11A80ED0D
:0100D000220D
:0400D1008A168B17E9
:1000D500120214AA18EAD3940040297F1012014491
:1000E500AC16AD17CFCDCFCECCCE120042EF540F0C
:1000F500FEC3940AEE5004243080022437FF120117
:04010500D51A80D1B6
:0101090022D3
:04010A008A1B8B1CA5
:10010E00120214AA1DEAD394004028EA24FFFDE44B
:10011E0034FFFC7F027E0012014EAC1BAD1CCFCD16
:10012E00CFCECCCE120042EF54012430FF1201D5B7
:03013E001A80D252
:01014100229B
:0300000002026198
:0C026100787FE4F6D8FD75812402017559
:10000300BB010CE58229F582E5833AF583E02250B2
:1000130006E92582F8E622BBFE06E92582F8E222FC
:0D002300E58229F582E5833AF583E4932216
:10003000EF8DF0A4A8F0CF8CF0A428CE8DF0A42EE4
:02004000FE229E
:10004200BC000BBE0029EF8DF084FFADF022E4CCA2
:10005200F875F008EF2FFFEE33FEEC33FCEE9DEC6B
:10006200984005FCEE9DFE0FD5F0E9E4CEFD22EDB1
:10007200F8F5F0EE8420D21CFEADF075F008EF2FFB
:10008200FFED33FD4007985006D5F0F222C398FDEC
:050092000FD5F0EA2289
:00000001FF
