:1003AC0048456C6C4F20574F524C44002020202065
:0D03BC0020202020202020202020202000B4
:10024D001204157BFF7A0379AC7D027F0112036BDB
:10025D001200038F22E52260F7120003EFFB7A00F4
:10026D00750C037D017F021203C97FD07E07120337
:10027D00E67BFF7A0379B87D017F0212036B80D094
:0403E600EF4E601462
:1003EA0000750902750AC7D50AFDD509FAEF1F700B
:0203FA00EB1EF8
:0303FC0080E82274
:06042900C2A58F80D2A7DE
:08042F007F027EEFDEFEDFFC20
:0104370022A2
:0A044400C2A6120429C2A702042F69
:10038E00CFCDCFCECCCE1201F87C007D0A1201F873
:04039E00ED2430FF1B
:0A03A200D2A6120429C2A702042FFC
:1003FF00AE07BE0104ED148006BE0209ED243F4492
:06040F0080FF12044422EC
:100415007F381204447F0C1204447F061204447F83
:040425000102044488
:0A044E00AC031203FFAF040203A287
:06036B008B088A09890AD3
:100371001203FFE4FDAB08AA09A90A8D8275830067
:0C0381001201B9FF60061203A20D80E912
:01038D00224D
:0C0338007F0AEA24FFFDE434FFFC7E0095
:080344008E0D8F0E8C0F8D1041
:10034C007F017E00E4FBEBC39510E50F6480F8742D
:0E035C008098500AAC0DAD0E1201E60B80E841
:01036A002270
:0403C9008A0A8B0B06
:1003CD001203FFAA0CEAD39400400D120338AC0AB5
:0803DD00AD0B12038E1A80ED36
:0103E50022F5
:10028D001203FFC3EA64809480400B7F2B1203A2FC
:10029D008A168B17800E7F2D1203A2C3E49BF517D0
:1002AD00E49AF516AA15EAD39400400D120338AC62
:0902BD0016AD1712038E1A80ED34
:0102C6002215
:0402C7008A1A8B1BE9
:1002CB001203FFAA1CEAD3940040297F1012033AB1
:1002DB00AC1AAD1BCFCDCFCECCCE1201F8EF540F55
:1002EB00FEC3940AEE5004243080022437FF12031D
:0402FB00A21A80D1F2
:0102FF0022DC
:040300008A1F8B20A5
:100304001203FFAA21EAD394004028EA24FFFDE463
:1003140034FFFC7F027E00120344AC1FAD20CFCD1E
:10032400CFCECCCE1201F8EF54012430FF1203A239
:030334001A80D25A
:0103370022A3
:10000300E4F5087590FFC2972093167F14FE120340
:10001300E63093FD7F147E001203E6750801AF08F6
:10002300222092177F147E001203E63092FD7F1484
:100033007E001203E6750802AF08222091177F1491
:100043007E001203E63091FD7F147E001203E675F5
:100053000803AF08222090177F147E001203E630B6
:1000630090FD7F147E001203E6750804AF08227525
:1000730090FFC2962093177F147E001203E63093FD
:10008300FD7F147E001203E6750805AF0822209257
:10009300177F147E001203E63092FD7F147E001258
:1000A30003E6750806AF08222091177F147E00121D
:1000B30003E63091FD7F147E001203E6750807AF57
:1000C30008222090177F147E001203E63090FD7FF4
:1000D300147E001203E6750808AF08227590FFC26C
:1000E300952093177F147E001203E63093FD7F144F
:1000F3007E001203E6750809AF08222092177F14C9
:100103007E001203E63092FD7F147E001203E67533
:10011300080AAF08222091177F147E001203E630ED
:1001230091FD7F147E001203E675080BAF082220B1
:1001330090177F147E001203E63090FD7F147E003B
:100143001203E675080CAF08227590FFC294209342
:10015300177F147E001203E63093FD7F147E001296
:1001630003E675080DAF08222092177F147E001254
:1001730003E63092FD7F147E001203E675080EAF8E
:1001830008222091177F147E001203E63091FD7F31
:10019300147E001203E675080FAF08222090167F25
:1001A300147E001203E63090FD7F147E001203E6F6
:0501B300750810AF0803
:0101B8002224
:03000000020438BF
:0C043800787FE4F6D8FD75812202024DA9
:1001B900BB010CE58229F582E5833AF583E02250FB
:1001C90006E92582F8E622BBFE06E92582F8E22245
:0D01D900E58229F582E5833AF583E493225F
:1001E600EF8DF0A4A8F0CF8CF0A428CE8DF0A42E2D
:0201F600FE22E7
:1001F800BC000BBE0029EF8DF084FFADF022E4CCEB
:10020800F875F008EF2FFFEE33FEEC33FCEE9DECB3
:10021800984005FCEE9DFE0FD5F0E9E4CEFD22EDF9
:10022800F8F5F0EE8420D21CFEADF075F008EF2F43
:10023800FFED33FD4007985006D5F0F222C398FD34
:050248000FD5F0EA22D1
:00000001FF
