:0201DA00AD076F
:1001DC00E4FB7E007480A803088006CEA2E713CE51
:1001EC0013D8F8FFEDF582EF558224FF92B4D2B606
:0A01FC00C2B60BBB08DCD2B5C2B5D9
:0102060022D5
:10020700AA07AF051201DAAF02A8077480088002B7
:10021700C313D8FCF4F5807F017E00120229758094
:02022700FF22B4
:10018C00C2B6C2B57D707C00E4FF1202077D887C8C
:10019C00007F011202077D847C007F021202077D22
:1001AC00427C007F031202077D427C007F04120216
:1001BC00077D847C007F051202077D887C007F060A
:0E01CC001202077D707C007F0712020780B6CA
:04022900EF4E601420
:10022D00007508027509C7D509FDD508FAEF1F70CD
:02023D00EB1EB6
:03023F0080E82232
:10000300E4F50A7590FFC2972093137F14FE120242
:10001300293093FD7F147E00120229750A01209274
:10002300147F147E001202293092FD7F147E001289
:100033000229750A022091147F147E0012022930CE
:1000430091FD7F147E00120229750A032090147F0C
:10005300147E001202293090FD7F147E00120229C3
:10006300750A047590FFC2962093147F147E0012C4
:1000730002293093FD7F147E00120229750A0520A0
:1000830092147F147E001202293092FD7F147E00A9
:10009300120229750A062091147F147E0012022988
:1000A3003091FD7F147E00120229750A07209014F7
:1000B3007F147E001202293090FD7F147E0012020D
:1000C30029750A087590FFC2952093147F147E004A
:1000D3001202293093FD7F147E00120229750A094A
:1000E3002092147F147E001202293092FD7F147E29
:1000F30000120229750A0A2091147F147E0012024D
:10010300293091FD7F147E00120229750A0B20907D
:10011300147F147E001202293090FD7F147E00129A
:100123000229750A0C7590FFC2942093147F147EE4
:10013300001202293093FD7F147E00120229750AF2
:100143000D2092147F147E001202293092FD7F1439
:100153007E00120229750A0E2091147F147E00126C
:1001630002293091FD7F147E00120229750A0F20A7
:1001730090147F147E001202293090FD7F147E00BC
:08018300120229750A10AF0AEF
:01018B002251
:100242005389F0438901758CFC758A67C28DD28C03
:07025200D2A9D2AFC2B9220C
:03000000020259A0
:0C025900787FE4F6D8FD75810A02018C64
:00000001FF
