:1000B500D2A07FF4120112C2A07FF41201127D01B9
:1000C5007F081200037FF41201127D037F071200DF
:1000D500037FF41201127D017F061200037FF412E3
:1000E50001127D047F051200037FF41201127D05C4
:1000F5007F041200037FF41201127D027F031200B8
:0D010500037FF41201127D017F020200034E
:03011200EF60108B
:0E011500007508027509C7D509FDD508FA1F47
:0301230080ED224A
:10000300EF14B40800505490001875F003A4C5838E
:1000130025F0C58373020030020034020038020069
:100023003C020040020048020050020058C2A48073
:100033000EC2A48012C2A48016C2A4801AD2A4C283
:10004300A3C2A28016D2A4C2A3D2A2800ED2A4D2EB
:10005300A3C2A28006D2A4D2A3D2A2EDB40A0050B6
:100063004D90006BF828287302008902008D02006E
:100073009102009502009902009D0200A10200A5D1
:100083000200A90200AD75803F22758006227580AB
:100093005B2275804F227580662275806D22758084
:1000A3007D227580072275807F2275806F22E4F59B
:0200B3008022A9
:03000000020126D4
:0C012600787FE4F6D8FD7581090200B571
:00000001FF
