:1003960012042E12046212026A8F0B8E0A8D098CC9
:1003A60008120147AB07AA067510067D027F0112E7
:0403B60003FB80E2E3
:1004420020202020202020202020202020202020AA
:0104520000A9
:06045300C2A58F80D2A7B4
:080459007F027EEFDEFEDFFCF6
:010461002278
:0A048500C2A6120453C2A7020459D4
:1003DD00CFCDCFCECCCE1202077C007D0A12020704
:0403ED00ED2430FFCC
:0A03F100D2A6120453C2A702045959
:10041800AE07BE0104ED148006BE0209ED243F4478
:0604280080FF1204852292
:10042E007F381204857F0C1204857F061204857FA7
:04043E00010204852E
:0A048F00AC03120418AF040203F1DD
:0603BA008B268A2789282A
:1003C000120418E4FDAB26AA27A9288D82758300A4
:0C03D0001201C8FF60061203F10D80E965
:0103DC0022FE
:0C0363007F0AEA24FFFDE434FFFC7E006A
:08036F008E118F128C138D1406
:100377007F017E00E4FBEBC39514E5136480F874FA
:0E0387008098500AAC11AD121201F50B80E8FF
:010395002245
:0403FB008A0E8B0FCC
:1003FF00120418AA10EAD39400400D120363AC0E36
:08040F00AD0F1203DD1A80EDB0
:0104170022C2
:1002B800120418C3EA64809480400B7F2B1203F168
:1002C8008A1A8B1B800E7F2D1203F1C3E49BF51B4A
:1002D800E49AF51AAA19EAD39400400D120363AC04
:0902E8001AAD1B1203DD1A80EDB2
:0102F10022EA
:0402F2008A1E8B1FB6
:1002F600120418AA20EAD3940040297F101203653D
:10030600AC1EAD1FCFCDCFCECCCE120207EF540F11
:10031600FEC3940AEE5004243080022437FF1203F1
:04032600F11A80D177
:01032A0022B0
:04032B008A238B2472
:10032F00120418AA25EAD394004028EA24FFFDE41A
:10033F0034FFFC7F027E0012036FAC23AD24CFCDC0
:10034F00CFCECCCE120207EF54012430FF1203F1AF
:03035F001A80D22F
:010362002278
:0B047A007BFF7A0479427D010203BA87
:0404A3007F02DFFEF7
:0104A7002232
:0A049900C295D2951204A3C2952269
:0C0462005389F0438901E4F58CF58A22EF
:10026A001204621204993097FDD28C2097FDC28C39
:10027A00AF8CEFFEAD8A7C00E42DFDEC3EFCE4126F
:10028A00010E7B487AE1798A783F1200038F0F8E3C
:10029A000E8D0D8C0C7F967E437D8B7C3CAB0FAA1A
:0D02AA000EA90DA80C120003E4F58CF58AD6
:0102B7002224
:10000300EC4D6011E8497017ED33EC3304600DE4F7
:10001300FCFFFEFD22E933E8330470F80201B3125A
:10002300017E58046009E4CC24815006285009025B
:1000330001BD2840030201BAC0E0EB4A7044B98015
:1000430006D0E0FB0201A9EF4E701CBD8008EBFF58
:10005300EAFEE9FD80EBE98DF0A4FEE5F00200EC99
:10006300E9CDF9EAFEEBFFEF89F0A4FCE5F0CE89D8
:10007300F0A42EFFE435F0CD89F0A42DFEE435F095
:100083008067EF4E7005BD80D780C3EF8BF0A4ACC3
:10009300F0EE8BF0A42CFCE435F0F8EF8AF0A42CFE
:1000A300E5F038FCE433CB8DF0A42CFCE5F03BF811
:1000B300EE8AF0A42CFCE5F038F8E433CF89F0A401
:1000C3002CFCE5F038CF3400CE89F0A42FFFE5F007
:1000D3003EFEE433C98DF0A42EFEE5F039CD8AF05F
:1000E300A42FFFE5F03EFEE43DFD33D0E0FB5007D7
:1000F3000BBB000F0201BDEC2CFCEF33FFEE33FE14
:06010300ED33FD02019541
:1001090075F020800E75F010800575F0087D007E71
:10011900007F003392D530D50312025CEC334010D6
:10012900EF33FFEE33FEED33FDEC33FCD5F0ED227A
:0E013900E5F0247EA2D513CC92E7CDCEFF22B6
:10014700EDD2E7CD33EC3392D524814006E4FFFEB0
:10015700FDFC22FCE4CFCECDCC24E0501174FF800F
:10016700EDC3CC13CCCD13CDCE13CECF13CF0470AC
:07017700F030D5DE02025C4E
:10017E00E9D2E7C933E833F892D5EDD2E7CD33ECC7
:07018E0033FC5002B2D52240
:10019500EC30E7100FBF000C0EBE00080DBD0004CB
:1001A5000BEB6014A2D5EB13FCED92E7FD2274FF77
:1001B500FCFDFEFF22E480F8A2D574FF13FC7D80D0
:0301C500E480EFE4
:0300000002046E89
:0C046E00787FE4F6D8FD75812802039623
:1001C800BB010CE58229F582E5833AF583E02250EC
:1001D80006E92582F8E622BBFE06E92582F8E22236
:0D01E800E58229F582E5833AF583E4932250
:1001F500EF8DF0A4A8F0CF8CF0A428CE8DF0A42E1E
:02020500FE22D7
:10020700BC000BBE0029EF8DF084FFADF022E4CCDB
:10021700F875F008EF2FFFEE33FEEC33FCEE9DECA4
:10022700984005FCEE9DFE0FD5F0E9E4CEFD22EDEA
:10023700F8F5F0EE8420D21CFEADF075F008EF2F34
:10024700FFED33FD4007985006D5F0F222C398FD25
:050257000FD5F0EA22C2
:0E025C00C3E49FFFE49EFEE49DFDE49CFC22B3
:00000001FF
